:04000000C0EF17F046
:102F540094500F09946E12000F0EC16E81909390DD
:102F6400AAEC17F01200016E0E0E0118D8A412007C
:102F740081B002D08180120081901200000EF66EA2
:102F8400300EF76E000EF86E0900F5CF05F0000163
:102F9400CCEF17F0AEEC17F0010EE2EC17F0046E74
:102FA4000450B5EC17F0C30E036E500E026E020609
:102FB400D8A003060228FBE10328D8B4EDD7F7D73D
:102FC400016E0104D8A415D082500F0B0F0AD8B497
:102FD40008D00550D8B405D0000E056E82500F0BF2
:102FE400120082500F0B0F0AD8A406D0010E056EF2
:0D2FF40003D00150D8B4F2D7FF0E12000137
:020000040030CA
:08000000FF01191EFF8081FFC2
:00000001FF
