:040000008CEF17F07A
:102F18000E6A0D6A00019AEF17F0000E936E000E0C
:102F2800C16E550E8A6E000E816E120091EC17F07C
:102F38008168000E046E000E036E000E066E800E91
:102F4800056E000E086E010E076E000E0A6E000E6A
:102F5800096E000E0C6E000E0B6E0CBE06D00C50E7
:102F6800E7E1100E0B5CD8B0E3D70CBE06D00C50CE
:102F780020E1070E0B5CD8B01CD003C081FF0550C0
:102F88000310036E06500410046ED8900630016ECC
:102F98000530056E01C006F0C30E0E6E500E0D6EA4
:102FA8000D06D8A00E060D28FBE10E28D8B421D0B6
:102FB800F7D7070E0B180C10D8A402D0816819D0C7
:102FC80009C081FF07500910096E08500A100A6EDF
:102FD800D8900734076E0834086EC30E0E6E500E74
:102FE8000D6E0D06D8A00E060D28FBE10E28D8A4FC
:082FF800F8D70B4A0C2AB1D7EF
:00000001FF
