:0400000056EF17F0B0
:102E820044EC17F01200000E956E9250F00B926E09
:102E92008050F00B806E1200E721CB6B2D6EEE237B
:102EA200EF6F0900090009000900236A226A216AFA
:102EB200206A9A0EF66E2E0EF76E000EF86E00EE77
:102EC20001F010EE12F00900F5CFEEFFE550E150EF
:102ED200FAE10001A7EF17F0000E1A6E000E196E4C
:102EE2001A5033E1320E195CD8B01200000E1B6E7C
:102EF200030E1B6401D026D01B50010DF350132486
:102F0200D96EF4501420DA6EDF50836E1BC015F0B8
:102F1200010E166E152A02D0D8901636152EFCD741
:102F22008050F00B1610806E030E186EE80E176EAE
:102F32001706D8A018061728FBE11828D8A4F8D736
:102F42001B2AD6D7194A1A2ACBD7120041EC17F0FE
:102F5200000E1D6E000E1C6E000E1F6E000E1E6E09
:102F6200010E1124D96E000E1220DA6EDF50236E8C
:102F7200010E0F24D96E000E1020DA6EDF50226E81
:102F8200010E0D24D96E000E0E20DA6EDF50216E76
:102F9200010E0B24D96E000E0C20DA6EDF50206E6B
:102FA200200E136E000E146E6DEC17F011501210FD
:102FB200D8B4D6D71106D8A0120611501210D8A430
:102FC200CFD70F06D8A01006000E126E090E116E92
:102FD2000F501010D8A4C4D70D06D8A00E06000EAC
:102FE200106E090E0F6E0D500E10D8A4B9D70B0635
:0E2FF200D8A00C06000E0E6E090E0D6EB1D7A3
:00000001FF
