:0400000059EF16F0AE
:082C4A0094500F09946E120072
:102C530080000100FF008000010001000E936E0060
:102C63000EC16E550E8A6E000E816E12000F0EC1DC
:102C73006E000E816E93902FEC16F025EC16F01279
:102C8300003068000E2D6E000E2C6E38EC16F0002E
:102C93000E2F6E000E2E6E010E8FEC16F0306E307E
:102CA30028D8A430C01DF01D5072EC16F0F4D700E4
:102CB300EE01F01D0EEE6AE806FDE1530EF66E2CF2
:102CC3000EF76E000EF86E00EE1EF010EE0BF0091C
:102CD30000F5CFEEFFE550E150FAE1000142EF16B7
:102CE300F02B6E0E0E2B18D8A403D08CEC17F01219
:102CF300000D0E2B18D8A403D021EC17F012000BF3
:102D03000E2B18D8A403D0ADEC16F01200070E2B2F
:102D130018D8A41200E7EC16F01200296E2904D883
:102D2300A415D082500F0B0F0AD8B408D02850D85E
:102D3300B405D0000E286E82500F0B120082500F84
:102D43000B0F0AD8A406D0010E286E03D02950D841
:102D5300B4F2D7FF0E12001550296E16502A6E15C5
:102D63004A162A990E295C3A0E2A58D8B00DD0AAD1
:102D73000E816E980E151808E13A0E1618D8A404A1
:102D8300D0000E186E000E176E1750296E18502AB9
:102D93006E174A182A990E295C3A0E2A58D8B0128F
:102DA30000980E155C3A0E1658D8A01200550E81E5
:102DB3006E980E171809E13A0E1818D8A4120000DD
:102DC3000E166E000E156E120012001950296E1A9F
:102DD300502A6E194A1A2A990E295C3A0E2A58D893
:102DE300B00DD0F00E816E980E191808E13A0E1A44
:102DF30018D8A404D0000E1C6E000E1B6E1B5029A5
:102E03006E1C502A6E1B4A1C2A990E295C3A0E2A04
:102E130058D8B01200980E195C3A0E1A58D8A0125E
:102E2300000F0E816E980E1B1809E13A0E1C18D87C
:102E3300A41200000E1A6E000E196E120012002F5B
:102E4300EC16F0110E0D180E10D8A413D0000E0EB0
:102E53006E000E0D6E000E236E2268000E256E802E
:102E63000E246E000E276E010E266E000E106E00ED
:102E73000E0F6E0E5028E1090E0D5CD8B024D00F52
:102E8300C081FF880E131804E1130E1418D8B4067A
:102E9300D0890E135C130E1458D8A012D026500FED
:102EA300100F6E27501010106ED8902634266E2700
:102EB30034276E0D4A0E2A000E146E000E136E1286
:102EC30000134A142A1200070E0D180E10D8A4047A
:102ED300D081680D4A0E2A120022C081FF880E118C
:102EE3001804E1130E1218D8B406D0890E115C131E
:102EF3000E1258D8A00CD0D8902234226E2334233B
:102F03006E0D4A0E2A000E126E000E116E12001183
:102F13004A122A12002FEC16F0110E03180410D8CF
:102F2300A414D0000E046E000E036E000E066E0095
:102F33000E056E000E1F6E800E1E6E000E216E01BA
:102F43000E206E000E086E000E076E04502AE10973
:102F53000E035CD8B026D005C081FF880E09180483
:102F6300E1130E0A18D8B406D0890E095C130E0AB1
:102F730058D8A014D01E500510056E1F5006100619
:102F83006ED8901F30296E1E301E6E29C01FF003AD
:102F93004A042A000E0A6E000E096E1200094A0A3C
:102FA3002A1200070E03180410D8A404D081680362
:102FB3004A042A120007C081FF880E0B1804E1138C
:102FC3000E0C18D8B406D0890E0B5C130E0C58D80F
:102FD300A012D020500710076E21500810086ED899
:102FE300902034206E2134216E034A042A000E0CF3
:0D2FF3006E000E0B6E12000B4A0C2A12002D
:020000040030CA
:08000000FF01191EFF8081FFC2
:00000001FF
