:0400000082EF17F084
:102F040000018EEF17F0000E936E000EC16E550E89
:102F14008A6E000E816E120085EC17F08168C30E74
:102F2400026E500E016E0106D8A002060128FBE1D4
:102F34000228D8A4F8D7C30E026E500E016E010603
:102F4400D8A002060128FBE10228D8A4F8D7C30EB2
:102F5400026E500E016E0106D8A002060128FBE1A4
:102F64000228D8A4F8D7000E816EC30E026E500E4C
:102F7400016E0106D8A002060128FBE10228D8A4AC
:102F8400F8D7C30E026E500E016E0106D8A00206D9
:102F94000128FBE10228D8A4F8D7C30E026E500E14
:102FA400016E0106D8A002060128FBE10228D8A47C
:102FB400F8D7C30E026E500E016E0106D8A00206A9
:102FC4000128FBE10228D8A4F8D7C30E026E500EE4
:102FD400016E0106D8A002060128FBE10228D8A44C
:102FE400F8D7C30E026E500E016E0106D8A0020679
:0C2FF4000128FBE10228D8B491D7F7D7E0
:00000001FF
