:040000000BEF00F012
:100008001282FACF01F0FBCF02F00DED00F067EF9E
:1000180000F00600E9CF03F0EACF04F0E1CF05F0E5
:10002800E2CF06F0D9CF07F0DACF08F0F3CF09F026
:10003800F4CF0AF0F6CF0BF0F7CF0CF0F8CF0DF0B5
:10004800F5CF0EF0F2A202D01180F2920EC0F5FFA9
:100058000DC0F8FF0CC0F7FF0BC0F6FF0AC0F4FF95
:1000680009C0F3FF08C0DAFF07C0D9FF06C0E2FFE6
:1000780005C0E1FF04C0EAFF03C0E9FF02C0FBFFBF
:1000880001C0FAFF129211005FEC00F082B006D0B6
:10009800119081BE02D0818E01D0819E270E106EF4
:1000A800100E0F6E0F06D8A010060F28FBE11028BF
:1000B800D8B4ECD7F7D70F0EC16E939E93806DEC32
:1000C80000F0F28E1200116A12901292000148EFAD
:0A00D80000F0F18CF292F2881200A1
:020000040030CA
:08000000FF01191EFF8081FFC2
:00000001FF
